000L2025033107702AFRICAN UNITY LIFE LIMITED    000105500000                                                                                                                       Billing SameDay     
001L04D4812503312504012504012504010000011055SAMEDAY   YY                                                                                                                                              
001L5063200504097772529D48100000105100100082904383100000150100250401360   AUL       190384_768428_1055  JAN HENDRIK VISAGIE           00000000000000000000                21                          
001L5063200504097772529D48100000267891051004490389200000097700250401360   AUL       676232_768527_1055  BONGANE MASEKO                00000000000000000000                21                          
001L5063200504097772529D48100000367900012175272123100000062000250401360   AUL       829856_768681_1055  MONIQUE HALL                  00000000000000000000                21                          
001L5063200504097772529D48100000446200503570789307200000097700250401360   AUL       694395_768545_1055  ALDRICH VAN WYK               00000000000000000000                21                          
001L5063200504097772529D48100000519876501585514950100000047300250401360   AUL       558594_768460_1055  JAROD GUSTAF PIENAAR          00000000000000000000                21                          
001L5063200504097772529D48100000663200504107000771100000150100250401360   AUL       823393_768674_1055  DR DE JAGER                   00000000000000000000                21                          
001L5063200504097772529D48100000725065562806958932100000047300250401360   AUL       725032_768585_1055  QUINIEN PIENAAR               00000000000000000000                21                          
001L5063200504097772529D48100000863200504099536799100000081300250401360   AUL       778090_768642_1055  FRANCOIS VAN DER WESTHUIZEN   00000000000000000000                21                          
001L5063200504097772529D48100000925065562900364754100000097700250401360   AUL       707086_768566_1055  KEVIN BIBILA MANKOU           00000000000000000000                21                          
001L5063200504097772529D48100001005100100372932932100000119500250401360   AUL       678850_768532_1055  SLS ACCESS PTY LTD            00000000000000000000                21                          
001L5063200504097772529D48100001167900012175272123100000150100250401360   AUL       728859_768591_1055  MONIQUE HALL                  00000000000000000000                21                          
001L5063200504097772529D48100001263200504099536799100000081300250401360   AUL       778398_768644_1055  FRANCOIS VAN DER WESTHUIZEN   00000000000000000000                21                          
001L5063200504097772529D48100001325065562809230569100000097700250401360   AUL       834882_768697_1055  MARSHALL MUKUTIRI             00000000000000000000                21                          
001L5063200504097772529D48100001463200504051880639200000150100250401360   AUL       748558_768611_1055  MARTIN GUBITZ                 00000000000000000000                21                          
001L5063200504097772529D48100001505100100271055529100000150100250401360   AUL       703857_768555_1055  JACORETTE THOMAS              00000000000000000000                21                          
001L5063200504097772529D48100001625065563106313537100000103100250401360   AUL       120695_768389_1055  THE VAULT MELROSE (PTY) LTD   00000000000000000000                21                          
001L5063200504097772529D48100001763200504099536799100000081300250401360   AUL       772652_768638_1055  FRANCOIS VAN DER WESTHUIZEN   00000000000000000000                21                          
001L5063200504097772529D48100001825065562484191061100000103100250401360   AUL       544406_768453_1055  ERIC MUKUNA BEYA              00000000000000000000                21                          
001L5063200504097772529D48100001963200504107000771100000150100250401360   AUL       202761_768438_1055  YUSHRA MOHAMMED               00000000000000000000                21                          
001L5063200504097772529D48100002063200504107000771100000150100250401360   AUL       202747_768437_1055  YUSHRA MOHAMMED               00000000000000000000                21                          
001L5063200504097772529D48100002125065562365356320100000129400250401360   AUL       725219_768586_1055  ANEMARIE BEZUIDENHOUDT        00000000000000000000                21                          
001L5063200504097772529D48100002219876501139379690100000047300250401360   AUL       711236_768571_1055  SAFARI INNOCENT               00000000000000000000                21                          
001L5063200504097772529D48100002367900017822001557100000150100250401360   AUL       670842_768520_1055  ETIENNE FABER                 00000000000000000000                21                          
001L5063200504097772529D48100002467891051055335549100000081300250401360   AUL       831032_768684_1055  DALE NAIR                     00000000000000000000                21                          
001L5063200504097772529D48100002505100100070930678100000081300250401360   AUL       134257_768409_1055  LYNN FREY                     00000000000000000000                21                          
001L5063200504097772529D48100002667891051089362690100000119500250401360   AUL       830866_768683_1055  KATELYN SINGH                 00000000000000000000                21                          
001L5063200504097772529D48100002763200504091156252100000103100250401360   AUL       540159_768451_1055  600CT MANADEMENT SERVICES     00000000000000000000                21                          
001L5063200504097772529D48100002825065562413874852100000128300250401360   AUL       121619_768390_1055  COENRAAD VAN HEERDEN          00000000000000000000                21                          
001L5263200504097772529D48100002963200504097772529100003008000250401100000AUL       CONTRA                                                                                                            
001L92D481000001000029250401250401000028000001000001000003008000000003008000678161954055                                                                                                              
999L000000033                                                                                                                                                                                         
